{
  "contractName": "Voting",
  "abi": [
    {
      "anonymous": false,
      "inputs": [
        {
          "indexed": true,
          "internalType": "address",
          "name": "previousOwner",
          "type": "address"
        },
        {
          "indexed": true,
          "internalType": "address",
          "name": "newOwner",
          "type": "address"
        }
      ],
      "name": "OwnershipTransferred",
      "type": "event"
    },
    {
      "anonymous": false,
      "inputs": [
        {
          "indexed": false,
          "internalType": "address",
          "name": "voter",
          "type": "address"
        },
        {
          "indexed": false,
          "internalType": "uint256",
          "name": "proposalId",
          "type": "uint256"
        }
      ],
      "name": "ProposalRegistered",
      "type": "event"
    },
    {
      "anonymous": false,
      "inputs": [
        {
          "indexed": false,
          "internalType": "address",
          "name": "voter",
          "type": "address"
        },
        {
          "indexed": false,
          "internalType": "uint256",
          "name": "proposalId",
          "type": "uint256"
        }
      ],
      "name": "Voted",
      "type": "event"
    },
    {
      "anonymous": false,
      "inputs": [
        {
          "indexed": false,
          "internalType": "address",
          "name": "voterAddress",
          "type": "address"
        }
      ],
      "name": "VoterRegistered",
      "type": "event"
    },
    {
      "anonymous": false,
      "inputs": [
        {
          "indexed": false,
          "internalType": "enum Voting.WorkflowStatus",
          "name": "previousStatus",
          "type": "uint8"
        },
        {
          "indexed": false,
          "internalType": "enum Voting.WorkflowStatus",
          "name": "newStatus",
          "type": "uint8"
        }
      ],
      "name": "WorkflowStatusChange",
      "type": "event"
    },
    {
      "inputs": [],
      "name": "owner",
      "outputs": [
        {
          "internalType": "address",
          "name": "",
          "type": "address"
        }
      ],
      "stateMutability": "view",
      "type": "function",
      "constant": true
    },
    {
      "inputs": [
        {
          "internalType": "uint256",
          "name": "",
          "type": "uint256"
        }
      ],
      "name": "proposals",
      "outputs": [
        {
          "internalType": "string",
          "name": "description",
          "type": "string"
        },
        {
          "internalType": "uint256",
          "name": "voteCount",
          "type": "uint256"
        }
      ],
      "stateMutability": "view",
      "type": "function",
      "constant": true
    },
    {
      "inputs": [],
      "name": "renounceOwnership",
      "outputs": [],
      "stateMutability": "nonpayable",
      "type": "function"
    },
    {
      "inputs": [
        {
          "internalType": "address",
          "name": "newOwner",
          "type": "address"
        }
      ],
      "name": "transferOwnership",
      "outputs": [],
      "stateMutability": "nonpayable",
      "type": "function"
    },
    {
      "inputs": [
        {
          "internalType": "address",
          "name": "",
          "type": "address"
        }
      ],
      "name": "voters",
      "outputs": [
        {
          "internalType": "bool",
          "name": "isRegistered",
          "type": "bool"
        },
        {
          "internalType": "bool",
          "name": "hasVoted",
          "type": "bool"
        },
        {
          "internalType": "uint256",
          "name": "votedProposalId",
          "type": "uint256"
        }
      ],
      "stateMutability": "view",
      "type": "function",
      "constant": true
    },
    {
      "inputs": [],
      "name": "winningProposalId",
      "outputs": [
        {
          "internalType": "uint256",
          "name": "",
          "type": "uint256"
        }
      ],
      "stateMutability": "view",
      "type": "function",
      "constant": true
    },
    {
      "inputs": [],
      "name": "workflowStatus",
      "outputs": [
        {
          "internalType": "enum Voting.WorkflowStatus",
          "name": "",
          "type": "uint8"
        }
      ],
      "stateMutability": "view",
      "type": "function",
      "constant": true
    },
    {
      "inputs": [
        {
          "internalType": "address",
          "name": "_address",
          "type": "address"
        }
      ],
      "name": "getVoter",
      "outputs": [
        {
          "components": [
            {
              "internalType": "bool",
              "name": "isRegistered",
              "type": "bool"
            },
            {
              "internalType": "bool",
              "name": "hasVoted",
              "type": "bool"
            },
            {
              "internalType": "uint256",
              "name": "votedProposalId",
              "type": "uint256"
            }
          ],
          "internalType": "struct Voting.Voter",
          "name": "",
          "type": "tuple"
        }
      ],
      "stateMutability": "view",
      "type": "function",
      "constant": true
    },
    {
      "inputs": [
        {
          "internalType": "uint256",
          "name": "_id",
          "type": "uint256"
        }
      ],
      "name": "getOneProposal",
      "outputs": [
        {
          "components": [
            {
              "internalType": "string",
              "name": "description",
              "type": "string"
            },
            {
              "internalType": "uint256",
              "name": "voteCount",
              "type": "uint256"
            }
          ],
          "internalType": "struct Voting.Proposal",
          "name": "",
          "type": "tuple"
        }
      ],
      "stateMutability": "view",
      "type": "function",
      "constant": true
    },
    {
      "inputs": [],
      "name": "startProposalsRegistering",
      "outputs": [],
      "stateMutability": "nonpayable",
      "type": "function"
    },
    {
      "inputs": [],
      "name": "endProposalsRegistering",
      "outputs": [],
      "stateMutability": "nonpayable",
      "type": "function"
    },
    {
      "inputs": [],
      "name": "startVotingSession",
      "outputs": [],
      "stateMutability": "nonpayable",
      "type": "function"
    },
    {
      "inputs": [],
      "name": "endVotingSession",
      "outputs": [],
      "stateMutability": "nonpayable",
      "type": "function"
    },
    {
      "inputs": [
        {
          "internalType": "address",
          "name": "_address",
          "type": "address"
        }
      ],
      "name": "addVoter",
      "outputs": [],
      "stateMutability": "nonpayable",
      "type": "function"
    },
    {
      "inputs": [
        {
          "internalType": "string",
          "name": "_description",
          "type": "string"
        }
      ],
      "name": "addProposal",
      "outputs": [],
      "stateMutability": "nonpayable",
      "type": "function"
    },
    {
      "inputs": [
        {
          "internalType": "uint256",
          "name": "_proposalId",
          "type": "uint256"
        }
      ],
      "name": "vote",
      "outputs": [],
      "stateMutability": "nonpayable",
      "type": "function"
    },
    {
      "inputs": [],
      "name": "tallyVotes",
      "outputs": [],
      "stateMutability": "nonpayable",
      "type": "function"
    },
    {
      "inputs": [],
      "name": "getWinningProposalId",
      "outputs": [
        {
          "internalType": "uint256",
          "name": "proposalId",
          "type": "uint256"
        },
        {
          "internalType": "string",
          "name": "description",
          "type": "string"
        },
        {
          "internalType": "uint256",
          "name": "voteCount",
          "type": "uint256"
        }
      ],
      "stateMutability": "view",
      "type": "function",
      "constant": true
    }
  ],
  "bytecode": "0x60806040523480156200001157600080fd5b5062000032620000266200003860201b60201c565b6200004060201b60201c565b62000104565b600033905090565b60008060009054906101000a900473ffffffffffffffffffffffffffffffffffffffff169050816000806101000a81548173ffffffffffffffffffffffffffffffffffffffff021916908373ffffffffffffffffffffffffffffffffffffffff1602179055508173ffffffffffffffffffffffffffffffffffffffff168173ffffffffffffffffffffffffffffffffffffffff167f8be0079c531659141344cd1fd0a4f28419497f9722a3daafe3b4186f6b6457e060405160405180910390a35050565b61295e80620001146000396000f3fe608060405234801561001057600080fd5b50600436106101165760003560e01c8063a7bfab16116100a2578063d4f50f9811610071578063d4f50f9814610272578063e81e977b146102a2578063ee74c678146102c2578063f2fde38b146102cc578063f4ab9adf146102e857610116565b8063a7bfab1614610236578063c64963c514610240578063c7038a4e1461025e578063c88af42f1461026857610116565b8063715018a6116100e9578063715018a61461018e5780638da5cb5b14610198578063a1edffa2146101b6578063a2788cce146101d4578063a3ec138d1461020457610116565b80630121b93f1461011b578063013cf08b146101375780632fdae3c514610168578063378a217814610184575b600080fd5b6101356004803603810190610130919061174d565b610304565b005b610151600480360381019061014c919061174d565b610614565b60405161015f929190611822565b60405180910390f35b610182600480360381019061017d9190611987565b6106d0565b005b61018c61096c565b005b610196610b22565b005b6101a0610b36565b6040516101ad9190611a11565b60405180910390f35b6101be610b5f565b6040516101cb9190611aa3565b60405180910390f35b6101ee60048036038101906101e9919061174d565b610b72565b6040516101fb9190611b54565b60405180910390f35b61021e60048036038101906102199190611ba2565b610cd9565b60405161022d93929190611bea565b60405180910390f35b61023e610d1d565b005b610248610e03565b6040516102559190611c21565b60405180910390f35b610266610e09565b005b610270610eef565b005b61028c60048036038101906102879190611ba2565b610fd4565b6040516102999190611c8d565b60405180910390f35b6102aa6110fc565b6040516102b993929190611ca8565b60405180910390f35b6102ca611268565b005b6102e660048036038101906102e19190611ba2565b61134e565b005b61030260048036038101906102fd9190611ba2565b6113d1565b005b600460003373ffffffffffffffffffffffffffffffffffffffff1673ffffffffffffffffffffffffffffffffffffffff16815260200190815260200160002060000160009054906101000a900460ff16610393576040517f08c379a000000000000000000000000000000000000000000000000000000000815260040161038a90611d32565b60405180910390fd5b600360058111156103a7576103a6611a2c565b5b600260009054906101000a900460ff1660058111156103c9576103c8611a2c565b5b14610409576040517f08c379a000000000000000000000000000000000000000000000000000000000815260040161040090611dc4565b60405180910390fd5b60011515600460003373ffffffffffffffffffffffffffffffffffffffff1673ffffffffffffffffffffffffffffffffffffffff16815260200190815260200160002060000160019054906101000a900460ff1615150361049f576040517f08c379a000000000000000000000000000000000000000000000000000000000815260040161049690611e30565b60405180910390fd5b80600460003373ffffffffffffffffffffffffffffffffffffffff1673ffffffffffffffffffffffffffffffffffffffff168152602001908152602001600020600101819055506001600460003373ffffffffffffffffffffffffffffffffffffffff1673ffffffffffffffffffffffffffffffffffffffff16815260200190815260200160002060000160016101000a81548160ff0219169083151502179055506003818154811061055557610554611e50565b5b9060005260206000209060020201600101600081548092919061057790611eae565b919050555060036001548154811061059257610591611e50565b5b906000526020600020906002020160010154600382815481106105b8576105b7611e50565b5b90600052602060002090600202016001015411156105d857806001819055505b7f4d99b957a2bc29a30ebd96a7be8e68fe50a3c701db28a91436490b7d53870ca43382604051610609929190611ef6565b60405180910390a150565b6003818154811061062457600080fd5b906000526020600020906002020160009150905080600001805461064790611f4e565b80601f016020809104026020016040519081016040528092919081815260200182805461067390611f4e565b80156106c05780601f10610695576101008083540402835291602001916106c0565b820191906000526020600020905b8154815290600101906020018083116106a357829003601f168201915b5050505050908060010154905082565b600460003373ffffffffffffffffffffffffffffffffffffffff1673ffffffffffffffffffffffffffffffffffffffff16815260200190815260200160002060000160009054906101000a900460ff1661075f576040517f08c379a000000000000000000000000000000000000000000000000000000000815260040161075690611d32565b60405180910390fd5b6001600581111561077357610772611a2c565b5b600260009054906101000a900460ff16600581111561079557610794611a2c565b5b146107d5576040517f08c379a00000000000000000000000000000000000000000000000000000000081526004016107cc90611fcb565b60405180910390fd5b6040516020016107e490612011565b604051602081830303815290604052805190602001208160405160200161080b9190612031565b6040516020818303038152906040528051906020012003610861576040517f08c379a0000000000000000000000000000000000000000000000000000000008152600401610858906120c5565b60405180910390fd5b603260038054905011156108aa576040517f08c379a00000000000000000000000000000000000000000000000000000000081526004016108a190612157565b60405180910390fd5b6108b26116c4565b818160000181905250600360405180604001604052808481526020016000815250908060018154018082558091505060019003906000526020600020906002020160009091909190915060008201518160000190816109119190612323565b506020820151816001015550507f9eb408555a36cedf102cce18ed0d73eb2eae17201d0e4dd776a899f81a3b943333600160038054905061095291906123f5565b604051610960929190611ef6565b60405180910390a15050565b61097461157a565b6004600581111561098857610987611a2c565b5b600260009054906101000a900460ff1660058111156109aa576109a9611a2c565b5b146109ea576040517f08c379a00000000000000000000000000000000000000000000000000000000081526004016109e19061249b565b60405180910390fd5b60326003805490501115610a33576040517f08c379a0000000000000000000000000000000000000000000000000000000008152600401610a2a90612157565b60405180910390fd5b600080600090505b600380549050811015610ab15760038281548110610a5c57610a5b611e50565b5b90600052602060002090600202016001015460038281548110610a8257610a81611e50565b5b9060005260206000209060020201600101541115610a9e578091505b8080610aa990611eae565b915050610a3b565b50806001819055506005600260006101000a81548160ff02191690836005811115610adf57610ade611a2c565b5b02179055507f0a97a4ee45751e2abf3e4fc8946939630b11b371ea8ae39ccdc3056e98f5cc3f60046005604051610b179291906124bb565b60405180910390a150565b610b2a61157a565b610b3460006115f8565b565b60008060009054906101000a900473ffffffffffffffffffffffffffffffffffffffff16905090565b600260009054906101000a900460ff1681565b610b7a6116c4565b600460003373ffffffffffffffffffffffffffffffffffffffff1673ffffffffffffffffffffffffffffffffffffffff16815260200190815260200160002060000160009054906101000a900460ff16610c09576040517f08c379a0000000000000000000000000000000000000000000000000000000008152600401610c0090611d32565b60405180910390fd5b60038281548110610c1d57610c1c611e50565b5b9060005260206000209060020201604051806040016040529081600082018054610c4690611f4e565b80601f0160208091040260200160405190810160405280929190818152602001828054610c7290611f4e565b8015610cbf5780601f10610c9457610100808354040283529160200191610cbf565b820191906000526020600020905b815481529060010190602001808311610ca257829003601f168201915b505050505081526020016001820154815250509050919050565b60046020528060005260406000206000915090508060000160009054906101000a900460ff16908060000160019054906101000a900460ff16908060010154905083565b610d2561157a565b60036005811115610d3957610d38611a2c565b5b600260009054906101000a900460ff166005811115610d5b57610d5a611a2c565b5b14610d9b576040517f08c379a0000000000000000000000000000000000000000000000000000000008152600401610d9290611dc4565b60405180910390fd5b6004600260006101000a81548160ff02191690836005811115610dc157610dc0611a2c565b5b02179055507f0a97a4ee45751e2abf3e4fc8946939630b11b371ea8ae39ccdc3056e98f5cc3f60036004604051610df99291906124bb565b60405180910390a1565b60015481565b610e1161157a565b60006005811115610e2557610e24611a2c565b5b600260009054906101000a900460ff166005811115610e4757610e46611a2c565b5b14610e87576040517f08c379a0000000000000000000000000000000000000000000000000000000008152600401610e7e90612556565b60405180910390fd5b6001600260006101000a81548160ff02191690836005811115610ead57610eac611a2c565b5b02179055507f0a97a4ee45751e2abf3e4fc8946939630b11b371ea8ae39ccdc3056e98f5cc3f60006001604051610ee59291906124bb565b60405180910390a1565b610ef761157a565b60016005811115610f0b57610f0a611a2c565b5b600260009054906101000a900460ff166005811115610f2d57610f2c611a2c565b5b14610f6d576040517f08c379a0000000000000000000000000000000000000000000000000000000008152600401610f64906125e8565b60405180910390fd5b60028060006101000a81548160ff02191690836005811115610f9257610f91611a2c565b5b02179055507f0a97a4ee45751e2abf3e4fc8946939630b11b371ea8ae39ccdc3056e98f5cc3f60016002604051610fca9291906124bb565b60405180910390a1565b610fdc6116de565b600460003373ffffffffffffffffffffffffffffffffffffffff1673ffffffffffffffffffffffffffffffffffffffff16815260200190815260200160002060000160009054906101000a900460ff1661106b576040517f08c379a000000000000000000000000000000000000000000000000000000000815260040161106290611d32565b60405180910390fd5b600460008373ffffffffffffffffffffffffffffffffffffffff1673ffffffffffffffffffffffffffffffffffffffff1681526020019081526020016000206040518060600160405290816000820160009054906101000a900460ff161515151581526020016000820160019054906101000a900460ff161515151581526020016001820154815250509050919050565b60006060600061110a61157a565b60058081111561111d5761111c611a2c565b5b600260009054906101000a900460ff16600581111561113f5761113e611a2c565b5b1461117f576040517f08c379a00000000000000000000000000000000000000000000000000000000081526004016111769061267a565b60405180910390fd5b60015460036001548154811061119857611197611e50565b5b90600052602060002090600202016000016003600154815481106111bf576111be611e50565b5b9060005260206000209060020201600101548180546111dd90611f4e565b80601f016020809104026020016040519081016040528092919081815260200182805461120990611f4e565b80156112565780601f1061122b57610100808354040283529160200191611256565b820191906000526020600020905b81548152906001019060200180831161123957829003601f168201915b50505050509150925092509250909192565b61127061157a565b6002600581111561128457611283611a2c565b5b600260009054906101000a900460ff1660058111156112a6576112a5611a2c565b5b146112e6576040517f08c379a00000000000000000000000000000000000000000000000000000000081526004016112dd9061270c565b60405180910390fd5b6003600260006101000a81548160ff0219169083600581111561130c5761130b611a2c565b5b02179055507f0a97a4ee45751e2abf3e4fc8946939630b11b371ea8ae39ccdc3056e98f5cc3f600260036040516113449291906124bb565b60405180910390a1565b61135661157a565b600073ffffffffffffffffffffffffffffffffffffffff168173ffffffffffffffffffffffffffffffffffffffff16036113c5576040517f08c379a00000000000000000000000000000000000000000000000000000000081526004016113bc9061279e565b60405180910390fd5b6113ce816115f8565b50565b6113d961157a565b600060058111156113ed576113ec611a2c565b5b600260009054906101000a900460ff16600581111561140f5761140e611a2c565b5b1461144f576040517f08c379a000000000000000000000000000000000000000000000000000000000815260040161144690612830565b60405180910390fd5b60011515600460008373ffffffffffffffffffffffffffffffffffffffff1673ffffffffffffffffffffffffffffffffffffffff16815260200190815260200160002060000160009054906101000a900460ff161515036114e5576040517f08c379a00000000000000000000000000000000000000000000000000000000081526004016114dc9061289c565b60405180910390fd5b6001600460008373ffffffffffffffffffffffffffffffffffffffff1673ffffffffffffffffffffffffffffffffffffffff16815260200190815260200160002060000160006101000a81548160ff0219169083151502179055507fb6be2187d059cc2a55fe29e0e503b566e1e0f8c8780096e185429350acffd3dd8160405161156f9190611a11565b60405180910390a150565b6115826116bc565b73ffffffffffffffffffffffffffffffffffffffff166115a0610b36565b73ffffffffffffffffffffffffffffffffffffffff16146115f6576040517f08c379a00000000000000000000000000000000000000000000000000000000081526004016115ed90612908565b60405180910390fd5b565b60008060009054906101000a900473ffffffffffffffffffffffffffffffffffffffff169050816000806101000a81548173ffffffffffffffffffffffffffffffffffffffff021916908373ffffffffffffffffffffffffffffffffffffffff1602179055508173ffffffffffffffffffffffffffffffffffffffff168173ffffffffffffffffffffffffffffffffffffffff167f8be0079c531659141344cd1fd0a4f28419497f9722a3daafe3b4186f6b6457e060405160405180910390a35050565b600033905090565b604051806040016040528060608152602001600081525090565b6040518060600160405280600015158152602001600015158152602001600081525090565b6000604051905090565b600080fd5b600080fd5b6000819050919050565b61172a81611717565b811461173557600080fd5b50565b60008135905061174781611721565b92915050565b6000602082840312156117635761176261170d565b5b600061177184828501611738565b91505092915050565b600081519050919050565b600082825260208201905092915050565b60005b838110156117b4578082015181840152602081019050611799565b838111156117c3576000848401525b50505050565b6000601f19601f8301169050919050565b60006117e58261177a565b6117ef8185611785565b93506117ff818560208601611796565b611808816117c9565b840191505092915050565b61181c81611717565b82525050565b6000604082019050818103600083015261183c81856117da565b905061184b6020830184611813565b9392505050565b600080fd5b600080fd5b7f4e487b7100000000000000000000000000000000000000000000000000000000600052604160045260246000fd5b611894826117c9565b810181811067ffffffffffffffff821117156118b3576118b261185c565b5b80604052505050565b60006118c6611703565b90506118d2828261188b565b919050565b600067ffffffffffffffff8211156118f2576118f161185c565b5b6118fb826117c9565b9050602081019050919050565b82818337600083830152505050565b600061192a611925846118d7565b6118bc565b90508281526020810184848401111561194657611945611857565b5b611951848285611908565b509392505050565b600082601f83011261196e5761196d611852565b5b813561197e848260208601611917565b91505092915050565b60006020828403121561199d5761199c61170d565b5b600082013567ffffffffffffffff8111156119bb576119ba611712565b5b6119c784828501611959565b91505092915050565b600073ffffffffffffffffffffffffffffffffffffffff82169050919050565b60006119fb826119d0565b9050919050565b611a0b816119f0565b82525050565b6000602082019050611a266000830184611a02565b92915050565b7f4e487b7100000000000000000000000000000000000000000000000000000000600052602160045260246000fd5b60068110611a6c57611a6b611a2c565b5b50565b6000819050611a7d82611a5b565b919050565b6000611a8d82611a6f565b9050919050565b611a9d81611a82565b82525050565b6000602082019050611ab86000830184611a94565b92915050565b600082825260208201905092915050565b6000611ada8261177a565b611ae48185611abe565b9350611af4818560208601611796565b611afd816117c9565b840191505092915050565b611b1181611717565b82525050565b60006040830160008301518482036000860152611b348282611acf565b9150506020830151611b496020860182611b08565b508091505092915050565b60006020820190508181036000830152611b6e8184611b17565b905092915050565b611b7f816119f0565b8114611b8a57600080fd5b50565b600081359050611b9c81611b76565b92915050565b600060208284031215611bb857611bb761170d565b5b6000611bc684828501611b8d565b91505092915050565b60008115159050919050565b611be481611bcf565b82525050565b6000606082019050611bff6000830186611bdb565b611c0c6020830185611bdb565b611c196040830184611813565b949350505050565b6000602082019050611c366000830184611813565b92915050565b611c4581611bcf565b82525050565b606082016000820151611c616000850182611c3c565b506020820151611c746020850182611c3c565b506040820151611c876040850182611b08565b50505050565b6000606082019050611ca26000830184611c4b565b92915050565b6000606082019050611cbd6000830186611813565b8181036020830152611ccf81856117da565b9050611cde6040830184611813565b949350505050565b7f596f75277265206e6f74206120766f7465720000000000000000000000000000600082015250565b6000611d1c601283611785565b9150611d2782611ce6565b602082019050919050565b60006020820190508181036000830152611d4b81611d0f565b9050919050565b7f566f74696e672073657373696f6e20686176656e74207374617274656420796560008201527f7400000000000000000000000000000000000000000000000000000000000000602082015250565b6000611dae602183611785565b9150611db982611d52565b604082019050919050565b60006020820190508181036000830152611ddd81611da1565b9050919050565b7f596f75206861766520616c726561647920766f74656400000000000000000000600082015250565b6000611e1a601683611785565b9150611e2582611de4565b602082019050919050565b60006020820190508181036000830152611e4981611e0d565b9050919050565b7f4e487b7100000000000000000000000000000000000000000000000000000000600052603260045260246000fd5b7f4e487b7100000000000000000000000000000000000000000000000000000000600052601160045260246000fd5b6000611eb982611717565b91507fffffffffffffffffffffffffffffffffffffffffffffffffffffffffffffffff8203611eeb57611eea611e7f565b5b600182019050919050565b6000604082019050611f0b6000830185611a02565b611f186020830184611813565b9392505050565b7f4e487b7100000000000000000000000000000000000000000000000000000000600052602260045260246000fd5b60006002820490506001821680611f6657607f821691505b602082108103611f7957611f78611f1f565b5b50919050565b7f50726f706f73616c7320617265206e6f7420616c6c6f77656420796574000000600082015250565b6000611fb5601d83611785565b9150611fc082611f7f565b602082019050919050565b60006020820190508181036000830152611fe481611fa8565b9050919050565b50565b6000611ffb600083611785565b915061200682611feb565b600082019050919050565b6000602082019050818103600083015261202a81611fee565b9050919050565b6000602082019050818103600083015261204b81846117da565b905092915050565b7f566f7573206e6520706f7576657a20706173206e65207269656e2070726f706f60008201527f7365720000000000000000000000000000000000000000000000000000000000602082015250565b60006120af602383611785565b91506120ba82612053565b604082019050919050565b600060208201905081810360008301526120de816120a2565b9050919050565b7f4d61782070726f706f73616c7320616d6f756e7420726561636865642028783560008201527f3029000000000000000000000000000000000000000000000000000000000000602082015250565b6000612141602283611785565b915061214c826120e5565b604082019050919050565b6000602082019050818103600083015261217081612134565b9050919050565b60008190508160005260206000209050919050565b60006020601f8301049050919050565b600082821b905092915050565b6000600883026121d97fffffffffffffffffffffffffffffffffffffffffffffffffffffffffffffffff8261219c565b6121e3868361219c565b95508019841693508086168417925050509392505050565b6000819050919050565b600061222061221b61221684611717565b6121fb565b611717565b9050919050565b6000819050919050565b61223a83612205565b61224e61224682612227565b8484546121a9565b825550505050565b600090565b612263612256565b61226e818484612231565b505050565b5b818110156122925761228760008261225b565b600181019050612274565b5050565b601f8211156122d7576122a881612177565b6122b18461218c565b810160208510156122c0578190505b6122d46122cc8561218c565b830182612273565b50505b505050565b600082821c905092915050565b60006122fa600019846008026122dc565b1980831691505092915050565b600061231383836122e9565b9150826002028217905092915050565b61232c8261177a565b67ffffffffffffffff8111156123455761234461185c565b5b61234f8254611f4e565b61235a828285612296565b600060209050601f83116001811461238d576000841561237b578287015190505b6123858582612307565b8655506123ed565b601f19841661239b86612177565b60005b828110156123c35784890151825560018201915060208501945060208101905061239e565b868310156123e057848901516123dc601f8916826122e9565b8355505b6001600288020188555050505b505050505050565b600061240082611717565b915061240b83611717565b92508282101561241e5761241d611e7f565b5b828203905092915050565b7f43757272656e7420737461747573206973206e6f7420766f74696e672073657360008201527f73696f6e20656e64656400000000000000000000000000000000000000000000602082015250565b6000612485602a83611785565b915061249082612429565b604082019050919050565b600060208201905081810360008301526124b481612478565b9050919050565b60006040820190506124d06000830185611a94565b6124dd6020830184611a94565b9392505050565b7f5265676973746572696e672070726f706f73616c732063616e7420626520737460008201527f6172746564206e6f770000000000000000000000000000000000000000000000602082015250565b6000612540602983611785565b915061254b826124e4565b604082019050919050565b6000602082019050818103600083015261256f81612533565b9050919050565b7f5265676973746572696e672070726f706f73616c7320686176656e742073746160008201527f7274656420796574000000000000000000000000000000000000000000000000602082015250565b60006125d2602883611785565b91506125dd82612576565b604082019050919050565b60006020820190508181036000830152612601816125c5565b9050919050565b7f43757272656e7420737461747573206973206e6f7420766f7465732074616c6c60008201527f6965640000000000000000000000000000000000000000000000000000000000602082015250565b6000612664602383611785565b915061266f82612608565b604082019050919050565b6000602082019050818103600083015261269381612657565b9050919050565b7f5265676973746572696e672070726f706f73616c73207068617365206973206e60008201527f6f742066696e6973686564000000000000000000000000000000000000000000602082015250565b60006126f6602b83611785565b91506127018261269a565b604082019050919050565b60006020820190508181036000830152612725816126e9565b9050919050565b7f4f776e61626c653a206e6577206f776e657220697320746865207a65726f206160008201527f6464726573730000000000000000000000000000000000000000000000000000602082015250565b6000612788602683611785565b91506127938261272c565b604082019050919050565b600060208201905081810360008301526127b78161277b565b9050919050565b7f566f7465727320726567697374726174696f6e206973206e6f74206f70656e2060008201527f7965740000000000000000000000000000000000000000000000000000000000602082015250565b600061281a602383611785565b9150612825826127be565b604082019050919050565b600060208201905081810360008301526128498161280d565b9050919050565b7f416c726561647920726567697374657265640000000000000000000000000000600082015250565b6000612886601283611785565b915061289182612850565b602082019050919050565b600060208201905081810360008301526128b581612879565b9050919050565b7f4f776e61626c653a2063616c6c6572206973206e6f7420746865206f776e6572600082015250565b60006128f2602083611785565b91506128fd826128bc565b602082019050919050565b60006020820190508181036000830152612921816128e5565b905091905056fea264697066735822122006864c44fea2187173915d4fe35ad239a14e97e5425614f7ae372d8fe98bd55f64736f6c634300080f0033",
  "immutableReferences": {},
  "source": "// SPDX-License-Identifier: MIT\npragma solidity 0.8.15;\n\n// OpenZeppelin Contracts (last updated v4.7.0) (access/Ownable.sol).\nimport \"@openzeppelin/contracts/access/Ownable.sol\";\n\n/**\n * @title Voting\n * @author Julien Chevallier\n *\n * @dev Contract module which provides a basic access control mechanism, where\n * there is an account (an owner) that can be granted exclusive access to\n * specific functions.\n *\n * By default, the owner account will be the one that deploys the contract.\n *\n * This module is used through inheritance. It will make available the modifier\n * `onlyOwner`, which can be applied to your functions to restrict their use to\n * the owner.\n */\ncontract Voting is Ownable {\n\n    /**\n     * @notice Returns the winning proposal.\n     * @dev By default this will be set to 0.\n     *\n     * Visibility is set to public to let anyone get the winning proposal ID.\n     */\n    uint public winningProposalId;\n\n    /**\n     * @notice Represents the structure of a voter.\n     *\n     * @param isRegistered      : Boolean for Voter registration = true or false.\n     * @param hasVoted          : Boolean for Voter has voted = true or false.\n     * @param votedProposalId   : Number corresponding to the Proposal Id.\n     */\n    struct Voter {\n        bool isRegistered;\n        bool hasVoted;\n        uint votedProposalId;\n    }\n\n    /**\n     * @notice Represents the structure of a proposal.\n     *\n     * @param description       : String for the description of the Proposal.\n     * @param voteCount         : Number of vote(s) for the proposal.\n     */\n    struct Proposal {\n        string description;\n        uint voteCount;\n    }\n\n    /**\n     * @notice Status of the different voting session.\n     */\n    enum  WorkflowStatus {\n        RegisteringVoters,\n        ProposalsRegistrationStarted,\n        ProposalsRegistrationEnded,\n        VotingSessionStarted,\n        VotingSessionEnded,\n        VotesTallied\n    }\n\n    /**\n     * @notice Returns the status of the workflow at any time.\n     *\n     * @dev By default this will be set to 0 (RegisteringVoters).\n     * Public visibility is set to let anyone read the current status of the workflow.\n     */\n    WorkflowStatus public workflowStatus;\n\n    /**\n     * @notice Returns the state of the workflow Status any time during the voting session.\n     */\n    Proposal[] public proposals;\n\n    /**\n     * @notice Mapping of voters by addresses.\n     */\n    mapping(address => Voter) public voters;\n\n    /**\n     * @notice Event triggered when voters are registered.\n     */\n    event VoterRegistered(address voterAddress);\n\n    /**\n     * @notice Event triggered when the Workflow Status is modified.\n     */\n    event WorkflowStatusChange(WorkflowStatus previousStatus, WorkflowStatus newStatus);\n\n    /**\n     * @notice Event triggered when Proposals are registered.\n     */    \n    event ProposalRegistered(address voter, uint proposalId);\n\n    /**\n     * @notice Event triggered when voting is closed.\n     */    \n    event Voted (address voter, uint proposalId);\n\n    /**\n     * @notice Checks if a voter is currently registered.\n     * @dev Reverts if not called by a whitelisted voter's address.\n     */\n    modifier onlyVoter() {\n        require(voters[msg.sender].isRegistered, \"You're not a voter\");\n        _;\n    }\n\n    /**\n     * @notice Gets the registered voter structure by address.\n     * @dev Only registered voters can call the function.\n     *\n     * @param _address             : address of the voter.\n     *\n     * @return returns the voter's structure (bool: isRegistered, bool: hasVoted, uint256: votedProposalId).\n     */\n    function getVoter(address _address) external onlyVoter view returns (Voter memory) {\n        return voters[_address];\n    }\n\n    /**\n     * @notice Gets the proposal ID.\n     * @dev Only registered voters can call the function.\n     *\n     * @param _id             : ID of the proposal.\n     *\n     * @return returns the proposal's structure (string: description ,uint256: voteCount).\n     */\n    function getOneProposal(uint _id) external onlyVoter view returns (Proposal memory) {\n        return proposals[_id];\n    }\n\n    /**\n     * @notice Owner starts the proposal registration phase\n     * @dev Current status must be RegisteringVoters.\n     * \n     * Emits a {WorkflowStatusChange} event.\n     */\n    function startProposalsRegistering() external onlyOwner {\n        require(workflowStatus == WorkflowStatus.RegisteringVoters, 'Registering proposals cant be started now');\n        workflowStatus = WorkflowStatus.ProposalsRegistrationStarted;\n        emit WorkflowStatusChange(WorkflowStatus.RegisteringVoters, WorkflowStatus.ProposalsRegistrationStarted);\n    }\n\n    /**\n     * @notice Owner ends the proposal registration phase.\n     * @dev Current status must be RegisteringVoters.\n     * \n     * Emits a {WorkflowStatusChange} event.\n     */\n    function endProposalsRegistering() external onlyOwner {\n        require(workflowStatus == WorkflowStatus.ProposalsRegistrationStarted, 'Registering proposals havent started yet');\n        workflowStatus = WorkflowStatus.ProposalsRegistrationEnded;\n        emit WorkflowStatusChange(WorkflowStatus.ProposalsRegistrationStarted, WorkflowStatus.ProposalsRegistrationEnded);\n    }\n\n    /**\n     * @notice Owner starts the voting session.\n     * @dev Current status must be ProposalsRegistrationEnded.\n     * \n     * Emits a {WorkflowStatusChange} event.\n     */\n    function startVotingSession() external onlyOwner {\n        require(workflowStatus == WorkflowStatus.ProposalsRegistrationEnded, 'Registering proposals phase is not finished');\n        workflowStatus = WorkflowStatus.VotingSessionStarted;\n        emit WorkflowStatusChange(WorkflowStatus.ProposalsRegistrationEnded, WorkflowStatus.VotingSessionStarted);\n    }\n\n        /**\n     * @notice Owner ends the voting session.\n     * @dev Current status must be VotingSessionStarted.\n     * \n     * Emits a {WorkflowStatusChange} event.\n     */\n    function endVotingSession() external onlyOwner {\n        require(workflowStatus == WorkflowStatus.VotingSessionStarted, 'Voting session havent started yet');\n        workflowStatus = WorkflowStatus.VotingSessionEnded;\n        emit WorkflowStatusChange(WorkflowStatus.VotingSessionStarted, WorkflowStatus.VotingSessionEnded);\n    }\n\n    /**\n     * @notice Adds a voter to the whitelist.\n     * @dev Only the owner can call the function.\n     *\n     * @param _address            : address of the voter.\n     *\n     * Emits a {VoterRegistered} event.\n     *\n     * Requirements:\n     *\n     * - `WorkflowStatus` must be at the RegisteringVoters state.\n     * - `voter` cannot be already registered.\n     */\n    function addVoter(address _address) external onlyOwner {\n        require(workflowStatus == WorkflowStatus.RegisteringVoters, 'Voters registration is not open yet');\n        require(voters[_address].isRegistered != true, 'Already registered');\n    \n        voters[_address].isRegistered = true;\n        emit VoterRegistered(_address);\n    }\n\n    /**\n     * @notice Adds a proposal (maximum 50 proposals).\n     * @dev Only registered voters can add a proposal.\n     *\n     * @param _description             : Proposal's description.\n     *\n     * Emits a {ProposalRegistered} event.\n     *\n     * Requirements:\n     *\n     * - `WorkflowStatus` must be at the ProposalsRegistrationStarted state.\n     * - `Description` can't be empty.\n     * - `Max length` = 50 proposals.\n     */\n    function addProposal(string memory _description) external onlyVoter {\n        require(workflowStatus == WorkflowStatus.ProposalsRegistrationStarted, 'Proposals are not allowed yet');\n        require(keccak256(abi.encode(_description)) != keccak256(abi.encode(\"\")), 'Vous ne pouvez pas ne rien proposer');\n        require(proposals.length <= 50, 'Max proposals amount reached (x50)');\n\n        Proposal memory proposal;\n        proposal.description = _description;\n        proposals.push(Proposal(_description, 0));\n\n        emit ProposalRegistered(msg.sender, proposals.length-1);\n    }\n\n    /**\n     * @notice Voter can vote for a proposal.\n     * @dev Only registered voters can vote.\n     * Voters can vote only once.\n     *\n     * @param _proposalId           : id of the proposal.\n     *\n     * Emits a {Voted} event.\n     *\n     * Requirements:\n     *\n     * - `WorkflowStatus` must be at the VotingSessionStarted state.\n     * - `voter` cannot have already voted.\n     */\n    function vote(uint _proposalId) external onlyVoter {\n        require(workflowStatus == WorkflowStatus.VotingSessionStarted, 'Voting session havent started yet');\n        require(voters[msg.sender].hasVoted != true, 'You have already voted');\n\n        voters[msg.sender].votedProposalId = _proposalId;\n        voters[msg.sender].hasVoted = true;\n        proposals[_proposalId].voteCount++;\n\n        if (proposals[_proposalId].voteCount > proposals[winningProposalId].voteCount) {\n            winningProposalId = _proposalId;\n        }\n\n        emit Voted(msg.sender, _proposalId);\n    }\n\n    /**\n     * @notice Owner tallies all the votes\n     * @dev Current status must be VotingSessionEnded\n     *\n     * Emits a {WorkflowStatusChange} event.\n     *\n     * Requirements:\n     *\n     * - `WorkflowStatus` must be at the VotingSessionEnded state.\n    * - `Max length` = 50 proposals.\n     */\n    function tallyVotes() external onlyOwner {\n        require(workflowStatus == WorkflowStatus.VotingSessionEnded, \"Current status is not voting session ended\");\n        require(proposals.length <= 50, 'Max proposals amount reached (x50)'); // security\n\n        uint _winningProposalId;\n\n        for (uint256 p = 0; p < proposals.length; p++) {\n            if (proposals[p].voteCount > proposals[_winningProposalId].voteCount) {\n                _winningProposalId = p;\n            }\n        }\n        winningProposalId = _winningProposalId;\n       \n        workflowStatus = WorkflowStatus.VotesTallied;\n        emit WorkflowStatusChange(WorkflowStatus.VotingSessionEnded, WorkflowStatus.VotesTallied);\n    }\n    \n    /**\n     * @notice Gets the winning proposal Id.\n     * @dev Only owner can call this function.\n     *\n     */\n    function getWinningProposalId() public onlyOwner view returns (uint256 proposalId, string memory description, uint256 voteCount) {\n        require(workflowStatus == WorkflowStatus.VotesTallied, \"Current status is not votes tallied\");\n        return (winningProposalId, proposals[winningProposalId].description, proposals[winningProposalId].voteCount);   \n    }\n}",
  "sourcePath": "/mnt/d/ALYRA/Projet #3/Voting-dApp/truffle/contracts/Voting.sol",
  "compiler": {
    "name": "solc",
    "version": "0.8.15+commit.e14f2714.Emscripten.clang"
  },
  "schemaVersion": "3.4.7",
  "updatedAt": "2022-07-19T14:21:21.691Z",
  "networkType": "ethereum",
  "devdoc": {
    "author": "Julien Chevallier",
    "details": "Contract module which provides a basic access control mechanism, where there is an account (an owner) that can be granted exclusive access to specific functions. By default, the owner account will be the one that deploys the contract. This module is used through inheritance. It will make available the modifier `onlyOwner`, which can be applied to your functions to restrict their use to the owner.",
    "kind": "dev",
    "methods": {
      "addProposal(string)": {
        "details": "Only registered voters can add a proposal.",
        "params": {
          "_description": ": Proposal's description. Emits a {ProposalRegistered} event. Requirements: - `WorkflowStatus` must be at the ProposalsRegistrationStarted state. - `Description` can't be empty. - `Max length` = 50 proposals."
        }
      },
      "addVoter(address)": {
        "details": "Only the owner can call the function.",
        "params": {
          "_address": ": address of the voter. Emits a {VoterRegistered} event. Requirements: - `WorkflowStatus` must be at the RegisteringVoters state. - `voter` cannot be already registered."
        }
      },
      "endProposalsRegistering()": {
        "details": "Current status must be RegisteringVoters.  Emits a {WorkflowStatusChange} event."
      },
      "endVotingSession()": {
        "details": "Current status must be VotingSessionStarted.  Emits a {WorkflowStatusChange} event."
      },
      "getOneProposal(uint256)": {
        "details": "Only registered voters can call the function.",
        "params": {
          "_id": ": ID of the proposal."
        },
        "returns": {
          "_0": "returns the proposal's structure (string: description ,uint256: voteCount)."
        }
      },
      "getVoter(address)": {
        "details": "Only registered voters can call the function.",
        "params": {
          "_address": ": address of the voter."
        },
        "returns": {
          "_0": "returns the voter's structure (bool: isRegistered, bool: hasVoted, uint256: votedProposalId)."
        }
      },
      "getWinningProposalId()": {
        "details": "Only owner can call this function."
      },
      "owner()": {
        "details": "Returns the address of the current owner."
      },
      "renounceOwnership()": {
        "details": "Leaves the contract without owner. It will not be possible to call `onlyOwner` functions anymore. Can only be called by the current owner. NOTE: Renouncing ownership will leave the contract without an owner, thereby removing any functionality that is only available to the owner."
      },
      "startProposalsRegistering()": {
        "details": "Current status must be RegisteringVoters.  Emits a {WorkflowStatusChange} event."
      },
      "startVotingSession()": {
        "details": "Current status must be ProposalsRegistrationEnded.  Emits a {WorkflowStatusChange} event."
      },
      "tallyVotes()": {
        "details": "Current status must be VotingSessionEnded Emits a {WorkflowStatusChange} event. Requirements: - `WorkflowStatus` must be at the VotingSessionEnded state. - `Max length` = 50 proposals."
      },
      "transferOwnership(address)": {
        "details": "Transfers ownership of the contract to a new account (`newOwner`). Can only be called by the current owner."
      },
      "vote(uint256)": {
        "details": "Only registered voters can vote. Voters can vote only once.",
        "params": {
          "_proposalId": ": id of the proposal. Emits a {Voted} event. Requirements: - `WorkflowStatus` must be at the VotingSessionStarted state. - `voter` cannot have already voted."
        }
      }
    },
    "stateVariables": {
      "winningProposalId": {
        "details": "By default this will be set to 0. Visibility is set to public to let anyone get the winning proposal ID."
      },
      "workflowStatus": {
        "details": "By default this will be set to 0 (RegisteringVoters). Public visibility is set to let anyone read the current status of the workflow."
      }
    },
    "title": "Voting",
    "version": 1
  },
  "userdoc": {
    "events": {
      "ProposalRegistered(address,uint256)": {
        "notice": "Event triggered when Proposals are registered."
      },
      "Voted(address,uint256)": {
        "notice": "Event triggered when voting is closed."
      },
      "VoterRegistered(address)": {
        "notice": "Event triggered when voters are registered."
      },
      "WorkflowStatusChange(uint8,uint8)": {
        "notice": "Event triggered when the Workflow Status is modified."
      }
    },
    "kind": "user",
    "methods": {
      "addProposal(string)": {
        "notice": "Adds a proposal (maximum 50 proposals)."
      },
      "addVoter(address)": {
        "notice": "Adds a voter to the whitelist."
      },
      "endProposalsRegistering()": {
        "notice": "Owner ends the proposal registration phase."
      },
      "endVotingSession()": {
        "notice": "Owner ends the voting session."
      },
      "getOneProposal(uint256)": {
        "notice": "Gets the proposal ID."
      },
      "getVoter(address)": {
        "notice": "Gets the registered voter structure by address."
      },
      "getWinningProposalId()": {
        "notice": "Gets the winning proposal Id."
      },
      "proposals(uint256)": {
        "notice": "Returns the state of the workflow Status any time during the voting session."
      },
      "startProposalsRegistering()": {
        "notice": "Owner starts the proposal registration phase"
      },
      "startVotingSession()": {
        "notice": "Owner starts the voting session."
      },
      "tallyVotes()": {
        "notice": "Owner tallies all the votes"
      },
      "vote(uint256)": {
        "notice": "Voter can vote for a proposal."
      },
      "voters(address)": {
        "notice": "Mapping of voters by addresses."
      },
      "winningProposalId()": {
        "notice": "Returns the winning proposal."
      },
      "workflowStatus()": {
        "notice": "Returns the status of the workflow at any time."
      }
    },
    "version": 1
  }
}